:030000000209678B
:0C096700787FE4F6D8FD75810F020916B8
:040973000A09050662
:0F09420074082BF8E6F5A07FC87E327D007C009C
:100951008F0F8E0E8D0D8C0C780C74FF1208F8EC35
:060961004D4E4F70F32221
:1009160078087C007D007BFF7A0979737E007F046E
:100926001208D0E4FB1209420BBB04F97B02D3EB9D
:0C0936006480948040ED1209421B80F2A6
:10080000E709F608DFFA8046E709F208DFFA803EDA
:1008100088828C83E709F0A3DFFA8032E309F608C7
:10082000DFFA8078E309F208DFFA807088828C832F
:10083000E309F0A3DFFA806489828A83E0A3F608E3
:10084000DFFA805889828A83E0A3F208DFFA804CBD
:1008500080D280FA80C680D4806980F28033801094
:1008600080A680EA809A80A880DA80E280CA8033FD
:1008700089828A83ECFAE493A3C8C582C8CCC58375
:10088000CCF0A3C8C582C8CCC583CCDFE9DEE78045
:100890000D89828A83E493A3F608DFF9ECFAA9F0C4
:1008A000EDFB2289828A83ECFAE0A3C8C582C8CC1A
:1008B000C583CCF0A3C8C582C8CCC583CCDFEADE33
:1008C000E880DB89828A83E493A3F208DFF980CC95
:1008D00088F0EF60010E4E60C388F0ED2402B4048E
:1008E0000050B9F582EB2402B4040050AF23234535
:0608F00082239008507302
:1008F6007401FF3395E0FEFDFC080808E6CF2FF6ED
:1009060018E6CE3EF618E6CD3DF618E6CC3CF622C5
:00000001FF
