:03000000020800F3
:0C080000787FE4F6D8FD758111020847EE
:0C0919000A083F065B4F666D7D077F6F8C
:10088C0075B0FFC2B020B4037F072220B5037F04EC
:10089C002220B6037F082220B7037F2D22D2B0C2BC
:1008AC00B120B4037F042220B5037F052220B603B8
:1008BC007F062220B7037F2A22D2B1C2B220B40312
:1008CC007F012220B5037F022220B6037F03222062
:1008DC00B7037F2D22D2B2C2B320B4037F4F2220A4
:1008EC00B5037F002220B6037F3D2220B7037F2B68
:0608FC0022D2B37F582256
:1009020012088CEF645860F8AE078EA08E807408CF
:070912002FF8E6F59080E9E3
:10080C00020902E493A3F8E493A34003F68001F2F7
:10081C0008DFF48029E493A3F85407240CC8C333ED
:10082C00C4540F4420C8834004F456800146F6DFBC
:10083C00E4800B0102040810204080900919E47E2A
:10084C00019360BCA3FF543F30E509541FFEE493B1
:10085C00A360010ECF54C025E060A840B8E493A378
:10086C00FAE493A3F8E493A3C8C582C8CAC583CAA3
:10087C00F0A3C8C582C8CAC583CADFE9DEE780BE5B
:0109250000D1
:00000001FF
