:03000000020ADF12
:0C0ADF00787FE4F6D8FD7581070208005E
:1009330031004F6E6B617200320053616D696B73EE
:100943006861003300566564616E74003400536857
:10095300727574690035004E696B68696C00360006
:1009630050726979616E6B61003700416B61736826
:100973000038005368756268616E67690039004327
:100983006861726C6965002F004D6974616E7368EC
:10099300002A004B727573686E696C002D004775F1
:1009A3006E6A616E002B00536E656861004F0053E1
:1009B300616772696B610030004B617374757269B2
:0109C3000033
:1009C40075B0FFC2B020B4037F072220B5037F08AF
:1009D4002220B6037F092220B7037F2F22D2B0C280
:1009E400B120B4037F042220B5037F052220B6037F
:1009F4007F062220B7037F2A22D2B1C2B220B403D9
:100A04007F012220B5037F022220B6037F03222028
:100A1400B7037F2D22D2B2C2B320B4037F4F22206A
:100A2400B5037F002220B6037F3D2220B7037F2B2E
:060A340022D2B37F7822FC
:060ABE00D2A17F647E005E
:0B0AC400EF1FAC0670011E4C70F62204
:070A94007BFF120AAB7FC4D7
:100A9B008F80C2A0120ABEC2A17F647E00020AC46C
:100ACF008F80D2A0120ABEC2A17F647E00020AC428
:100AAB00120A3AFF600C120ACF740129F9E43AFAE0
:030ABB0080EE22A8
:100A79007F38120A9B7F0E120A9B7F06120A9B7F00
:0B0A890001120A9B7FE87E03020AC4F2
:100800001209C4AD07ED647860F6120A797F871289
:100810000A9BED120A5308470108550208630308B2
:10082000730408830508930608A30708B30808C2E1
:100830000908E02A08FE2B08EF2D08D12F092030E7
:10084000090D4F000008007A097933120A947A09D9
:10085000793502091A7A09793B120A947A09793DA5
:1008600002091A7BFF7A097946120A967A097948B1
:1008700002091A7BFF7A09794F120A967A0979518F
:1008800002091A7BFF7A097958120A967A09795A6D
:1008900002091A7BFF7A097961120A967A0979634B
:1008A00002091A7BFF7A09796C120A967A09796E25
:1008B00002091A7BFF7A097974120A967A09797605
:1008C00080587BFF7A097980120A967A09798280AA
:1008D000497BFF7A09798A120A967A09798C803ADB
:1008E0007BFF7A097994120A967A097996802B7B94
:1008F000FF7A09799F120A967A0979A1801C7BFFF9
:100900007A0979A8120A967A0979AA800D7BFF7A6A
:100910000979B0120A967A0979B2120AAB02080074
:100920007BFF7A0979BA120A967A0979BC120AAB66
:03093000020800BA
:100A3A00BB010689828A83E0225002E722BBFE02BA
:090A4A00E32289828A83E49322ED
:100A5300D083D082F8E4937012740193700DA3A332
:100A630093F8740193F5828883E473740293686046
:060A7300EFA3A3A380DF46
:00000001FF
