:030000000208B43F
:0C08B400787FE4F6D8FD7581070208008B
:06088300D2A17F647E009B
:0B088900EF1FAC0670011E4C70F62241
:100894008F80C2A0120883C2A17F647E00020889EF
:1008A4008F80D2A0120883C2A17F647E00020889CF
:10087000120857FF600C1208A4740129F9E43AFA2F
:0308800080EE22E5
:10083C007F381208947F0E1208947F061208947F5A
:0B084C00011208947FE87E0302088977
:1008000012083C7F811208947F301208A47F3112B5
:1008100008A47F321208A47F331208A47F34120880
:10082000A47F351208A47F361208A47F371208A4CB
:0C0830007F381208A47F391208A480FE53
:10085700BB010689828A83E0225002E722BBFE029F
:09086700E32289828A83E49322D2
:00000001FF
