:03000000020800F3
:0C080000787FE4F6D8FD75811C020847E3
:100956000C0C3F065B4F666D7D077F6F40000408F9
:040966000102030483
:100940008F1C8E1B8D1A8C19781974FF120904ECF8
:060950004D4E4F70F32232
:10092200E4FB740C2BF8E6F5A00B7F587E1B7D00D0
:0D0932007C00120940C3EB6480948940E50D
:01093F002295
:10088C0075B0FFC2B020B4037F072220B5037F08E8
:10089C002220B6037F092220B7037F2D22D2B0C2BB
:1008AC00B120B4037F042220B5037F052220B603B8
:1008BC007F062220B7037F2A22D2B1C2B220B40312
:1008CC007F012220B5037F022220B6037F03222062
:1008DC00B7037F2D22D2B2C2B320B4037F4F2220A4
:1008EC00B5037F002220B6037F3D2220B7037F2B68
:0608FC0022D2B37F582256
:06096B00E4F51802092268
:10080C0002096BE493A3F8E493A34003F68001F28E
:10081C0008DFF48029E493A3F85407240CC8C333ED
:10082C00C4540F4420C8834004F456800146F6DFBC
:10083C00E4800B0102040810204080900956E47EED
:10084C00019360BCA3FF543F30E509541FFEE493B1
:10085C00A360010ECF54C025E060A840B8E493A378
:10086C00FAE493A3F8E493A3C8C582C8CAC583CAA3
:10087C00F0A3C8C582C8CAC583CADFE9DEE780BE5B
:01096A00008C
:100902007401FF3395E0FEFDFC080808E6CF2FF6E0
:1009120018E6CE3EF618E6CD3DF618E6CC3CF622B9
:00000001FF
