:030000000208767D
:0C087600787FE4F6D8FD75810702088247
:1008000075B0FFC2B020B4037F012220B5037F0280
:100810002220B6037F032220B7037F0422D2B0C276
:10082000B120B4037F052220B5037F062220B60342
:100830007F072220B7037F0822D2B1C2B220B403BF
:100840007F092220B5037F0A2220B6037F0B2220D6
:10085000B7037F0C22D2B2C2B320B4037F0D222093
:10086000B5037F0E2220B6037F0F2220B7037F102F
:0608700022D2B37F5822E2
:0C088200120800EF645860F88FA080F4AA
:00000001FF
