:0300000002090FE3
:0C090F00787FE4F6D8FD758128020956B7
:080A900057454C434F4D450052
:100A3300C1001408000000000000000000000000D6
:080A43000000000000000000AB
:060A5F00D2A17F647E00BD
:0B0A6500EF1FAC0670011E4C70F62263
:100A70008F80C2A0120A5FC2A17F647E00020A6555
:100A80008F80D2A0120A5FC2A17F647E00020A6535
:100A4C001208F6FF600C120A80740129F9E43AFAD4
:030A5C0080EE2207
:100A18007F38120A707F0E120A707F06120A707FE2
:0B0A280001120A707FE87E03020A65DD
:030023000209EAE5
:1009EA00C0E0C0D075D000C00030981BC29874080F
:1009FA00251CF8A6997408251CF8E6B42307D2002A
:0E0A0A00751C008002051CD000D0D0D0E03258
:10099B0078217C007D007BFF7A0A79907E007F08AE
:1009AB001208D0120A187F84120A707B007A007921
:1009BB0021120A4C7FC0120A7075892075985075E8
:1009CB008DFDD28E75A8908508993000FD7FC012E1
:0F09DB000A707B007A007908120A4CC20080EB88
:10091B0002099BE493A3F8E493A34003F68001F24E
:10092B0008DFF48029E493A3F85407240CC8C333DD
:10093B00C4540F4420C8834004F456800146F6DFAC
:10094B00E4800B0102040810204080900A33E47EFF
:10095B00019360BCA3FF543F30E509541FFEE493A1
:10096B00A360010ECF54C025E060A840B8E493A368
:10097B00FAE493A3F8E493A3C8C582C8CAC583CA93
:10098B00F0A3C8C582C8CAC583CADFE9DEE780BE4B
:010A4B0000AA
:10080000E709F608DFFA8046E709F208DFFA803EDA
:1008100088828C83E709F0A3DFFA8032E309F608C7
:10082000DFFA8078E309F208DFFA807088828C832F
:10083000E309F0A3DFFA806489828A83E0A3F608E3
:10084000DFFA805889828A83E0A3F208DFFA804CBD
:1008500080D280FA80C680D4806980F28033801094
:1008600080A680EA809A80A880DA80E280CA8033FD
:1008700089828A83ECFAE493A3C8C582C8CCC58375
:10088000CCF0A3C8C582C8CCC583CCDFE9DEE78045
:100890000D89828A83E493A3F608DFF9ECFAA9F0C4
:1008A000EDFB2289828A83ECFAE0A3C8C582C8CC1A
:1008B000C583CCF0A3C8C582C8CCC583CCDFEADE33
:1008C000E880DB89828A83E493A3F208DFF980CC95
:1008D00088F0EF60010E4E60C388F0ED2402B4048E
:1008E0000050B9F582EB2402B4040050AF23234535
:0608F00082239008507302
:1008F600BB010689828A83E0225002E722BBFE0200
:09090600E32289828A83E4932232
:00000001FF
