:0300000002089A59
:0C089A00787FE4F6D8FD7581190208E1B2
:0C09C0000A083F065B4F666D7D077F6FE5
:0409B1007F0A7E003B
:0B09B500EF1FAC0670011E4C70F62214
:100800007B017A008A128B13E4F514D3E51394006C
:10081000E512648094804025AE12AF137C007D0AFF
:1008200012092674152514F8A605AE12AF137C0024
:100830007D0A1209268E128F13051480CE900000B7
:1008400074082518F8E6F5A0C2B01209B1D2B07448
:10085000082517F8E6F5A0C2B11209B1D2B17408A3
:100860002516F8E6F5A0C2B21209B1D2B274082575
:1008700015F8E6F5A0C2B31209B1D2B3A3E58264BC
:1008800064458370BB0BBB00010AEB64E87003EAAC
:0A089000640360030208040208007C
:1008A600020800E493A3F8E493A34003F68001F260
:1008B60008DFF48029E493A3F85407240CC8C33353
:1008C600C4540F4420C8834004F456800146F6DF22
:1008D600E4800B01020408102040809009C0E47EE9
:1008E600019360BCA3FF543F30E509541FFEE49317
:1008F600A360010ECF54C025E060A840B8E493A3DE
:10090600FAE493A3F8E493A3C8C582C8CAC583CA08
:10091600F0A3C8C582C8CAC583CADFE9DEE780BEC0
:0109CC00002A
:10092600C2D5EC30E709B2D5E4C39DFDE49CFCEEEC
:1009360030E715B2D5E4C39FFFE49EFE12095CC3FF
:10094600E49DFDE49CFC800312095C30D507C3E4FA
:060956009FFFE49EFE225B
:10095C00BC000BBE0029EF8DF084FFADF022E4CC7F
:10096C00F875F008EF2FFFEE33FEEC33FCEE9DEC48
:10097C00984005FCEE9DFE0FD5F0E9E4CEFD22ED8E
:10098C00F8F5F0EE8420D21CFEADF075F008EF2FD8
:10099C00FFED33FD4007985006D5F0F222C398FDC9
:0509AC000FD5F0EA2266
:00000001FF
