:03000000020800F3
:0C080000787FE4F6D8FD758117020847E8
:0C092B000A083F065B4F666D7D077F6F7A
:08090D007F327E007D007C00BA
:100915008F178E168D158C14781474FF1208B0EC91
:060925004D4E4F70F3225D
:1008CE00E4FB900000EB75F00A12088C2408F8E6A1
:1008DE00F5A0C29012090DD290EB75F00A12088C99
:1008EE00AFF074082FF8E6F5A0C29112090DD2915F
:0F08FE00A3E5826464458370CC0BBB64C580C1E5
:10080C000208CEE493A3F8E493A34003F68001F22C
:10081C0008DFF48029E493A3F85407240CC8C333ED
:10082C00C4540F4420C8834004F456800146F6DFBC
:10083C00E4800B010204081020408090092BE47E18
:10084C00019360BCA3FF543F30E509541FFEE493B1
:10085C00A360010ECF54C025E060A840B8E493A378
:10086C00FAE493A3F8E493A3C8C582C8CAC583CAA3
:10087C00F0A3C8C582C8CAC583CADFE9DEE780BE5B
:0109370000BF
:10088C00C2D530F707B2D563F0FF05F030E70CB2F4
:10089C00D5F4048463F0FF05F080018430D502F4B4
:0208AC00042224
:1008AE007401FF3395E0FEFDFC080808E6CF2FF635
:1008BE0018E6CE3EF618E6CD3DF618E6CC3CF6220E
:00000001FF
