:0300000002090FE3
:0C090F00787FE4F6D8FD758107020876B9
:1008000075B0FFC2B020B4037F072220B5037F0874
:100810002220B6037F092220B7037F2D22D2B0C247
:10082000B120B4037F042220B5037F052220B60344
:100830007F062220B7037F2A22D2B1C2B220B4039E
:100840007F012220B5037F022220B6037F032220EE
:10085000B7037F2D22D2B2C2B320B4037F4F222030
:10086000B5037F002220B6037F3D2220B7037F2BF4
:0608700022D2B37F5822E2
:0608DE00D2A17F647E0040
:0B08E400EF1FAC0670011E4C70F622E6
:1008EF008F80C2A01208DEC2A17F647E000208E4DE
:1008FF008F80D2A01208DEC2A17F647E000208E4BE
:1008CB001208B2FF600C1208FF740129F9E43AFA1E
:0308DB0080EE228A
:100897007F381208EF7F0E1208EF7F061208EF7FEE
:0B08A700011208EF7FE87E030208E466
:100876001208977F801208EF120800AD07ED645842
:100886006006ED2430FF80027F201208FFBD58E885
:01089600223F
:1008B200BB010689828A83E0225002E722BBFE0244
:0908C200E32289828A83E4932277
:00000001FF
