:03000000020A0BE6
:0C0A0B00787FE4F6D8FD75811702090F12
:1009E3004344414300454D42454444454420535903
:0509F3005354454D00C6
:1009AD00540FFFE58054F04FF580C2A0D2A17F64B3
:0209BD007E00BA
:0B09BF00EF1FAC0670011E4C70F6220A
:1009CA00AD07EDC41209ADC2A11209BBED1209AD02
:0909DA00C2A17F647E000209BF86
:10095700AD07EDC4540FFFE58054F04FF580D2A0EA
:100967001209B9C2A11209BBED540FFFE58054F07B
:100977004FF580D2A01209B9C2A17F647E00020997
:01098700BFB0
:1009F8001208F6FF600C120957740129F9E43AFA53
:030A080080EE225B
:100988007F331209CA7F321209CA7F281209CA7F27
:100998000E1209CA7F061209CA7F011209CA7FE826
:0509A8007E030209BFFF
:10090F0078087C007D007BFF7A0979E87E007F10F4
:10091F001208D01209887F801209CA7B007A0079E9
:10092F00081209F87FC01209CA7BFF7A0979E3120E
:10093F0009F87F311209577F371209577F4612097D
:08094F00577F7A12095780FE60
:10080000E709F608DFFA8046E709F208DFFA803EDA
:1008100088828C83E709F0A3DFFA8032E309F608C7
:10082000DFFA8078E309F208DFFA807088828C832F
:10083000E309F0A3DFFA806489828A83E0A3F608E3
:10084000DFFA805889828A83E0A3F208DFFA804CBD
:1008500080D280FA80C680D4806980F28033801094
:1008600080A680EA809A80A880DA80E280CA8033FD
:1008700089828A83ECFAE493A3C8C582C8CCC58375
:10088000CCF0A3C8C582C8CCC583CCDFE9DEE78045
:100890000D89828A83E493A3F608DFF9ECFAA9F0C4
:1008A000EDFB2289828A83ECFAE0A3C8C582C8CC1A
:1008B000C583CCF0A3C8C582C8CCC583CCDFEADE33
:1008C000E880DB89828A83E493A3F208DFF980CC95
:1008D00088F0EF60010E4E60C388F0ED2402B4048E
:1008E0000050B9F582EB2402B4040050AF23234535
:0608F00082239008507302
:1008F600BB010689828A83E0225002E722BBFE0200
:09090600E32289828A83E4932232
:00000001FF
