:0300000002086291
:0C086200787FE4F6D8FD75810702083CA1
:0B088600EF1FAC0670011E4C70F62244
:0C086E00D2A1D2A030A0FDC2A1C2A022E5
:0C087A00C2A1D2A030A0FDD2A1C2A022D9
:10080000E4FEEF30E004D2A18002C2A1D2A030A069
:10081000FDC2A0EF25E0FF0EBE08E77F887E130231
:02082000088648
:0308530012080088
:0C085600D2A1D2A030A0FDC2A0C2A122FD
:10082200AB0712086E7FD0120853AF03120853AF02
:0A0832000512080012085602087AA9
:10083C007F207EA11208867F207EA11208867D4132
:07084C007F3912082280F73A
:00000001FF
